{
  "contractName": "MedicalRecord",
  "abi": [
    {
      "inputs": [],
      "stateMutability": "nonpayable",
      "type": "constructor"
    },
    {
      "anonymous": false,
      "inputs": [
        {
          "indexed": true,
          "internalType": "address",
          "name": "patient",
          "type": "address"
        },
        {
          "indexed": true,
          "internalType": "address",
          "name": "doctor",
          "type": "address"
        }
      ],
      "name": "AccessGranted",
      "type": "event"
    },
    {
      "anonymous": false,
      "inputs": [
        {
          "indexed": true,
          "internalType": "address",
          "name": "doctor",
          "type": "address"
        },
        {
          "indexed": true,
          "internalType": "address",
          "name": "patient",
          "type": "address"
        }
      ],
      "name": "AccessRequested",
      "type": "event"
    },
    {
      "anonymous": false,
      "inputs": [
        {
          "indexed": true,
          "internalType": "address",
          "name": "patient",
          "type": "address"
        },
        {
          "indexed": true,
          "internalType": "address",
          "name": "doctor",
          "type": "address"
        }
      ],
      "name": "AccessRevoked",
      "type": "event"
    },
    {
      "anonymous": false,
      "inputs": [
        {
          "indexed": true,
          "internalType": "address",
          "name": "doctor",
          "type": "address"
        }
      ],
      "name": "DoctorRegistered",
      "type": "event"
    },
    {
      "anonymous": false,
      "inputs": [
        {
          "indexed": true,
          "internalType": "address",
          "name": "patient",
          "type": "address"
        }
      ],
      "name": "PatientRegistered",
      "type": "event"
    },
    {
      "anonymous": false,
      "inputs": [
        {
          "indexed": true,
          "internalType": "uint256",
          "name": "recordId",
          "type": "uint256"
        },
        {
          "indexed": true,
          "internalType": "address",
          "name": "patient",
          "type": "address"
        }
      ],
      "name": "RecordAdded",
      "type": "event"
    },
    {
      "inputs": [
        {
          "internalType": "address",
          "name": "",
          "type": "address"
        },
        {
          "internalType": "address",
          "name": "",
          "type": "address"
        }
      ],
      "name": "accessPermissions",
      "outputs": [
        {
          "internalType": "bool",
          "name": "",
          "type": "bool"
        }
      ],
      "stateMutability": "view",
      "type": "function",
      "constant": true
    },
    {
      "inputs": [
        {
          "internalType": "address",
          "name": "",
          "type": "address"
        }
      ],
      "name": "doctors",
      "outputs": [
        {
          "internalType": "bool",
          "name": "",
          "type": "bool"
        }
      ],
      "stateMutability": "view",
      "type": "function",
      "constant": true
    },
    {
      "inputs": [],
      "name": "owner",
      "outputs": [
        {
          "internalType": "address",
          "name": "",
          "type": "address"
        }
      ],
      "stateMutability": "view",
      "type": "function",
      "constant": true
    },
    {
      "inputs": [
        {
          "internalType": "address",
          "name": "",
          "type": "address"
        }
      ],
      "name": "patients",
      "outputs": [
        {
          "internalType": "bool",
          "name": "",
          "type": "bool"
        }
      ],
      "stateMutability": "view",
      "type": "function",
      "constant": true
    },
    {
      "inputs": [],
      "name": "recordCounter",
      "outputs": [
        {
          "internalType": "uint256",
          "name": "",
          "type": "uint256"
        }
      ],
      "stateMutability": "view",
      "type": "function",
      "constant": true
    },
    {
      "inputs": [
        {
          "internalType": "uint256",
          "name": "",
          "type": "uint256"
        }
      ],
      "name": "records",
      "outputs": [
        {
          "internalType": "uint256",
          "name": "recordId",
          "type": "uint256"
        },
        {
          "internalType": "string",
          "name": "diagnosis",
          "type": "string"
        },
        {
          "internalType": "string",
          "name": "treatment",
          "type": "string"
        },
        {
          "internalType": "address",
          "name": "patient",
          "type": "address"
        },
        {
          "internalType": "uint256",
          "name": "timestamp",
          "type": "uint256"
        }
      ],
      "stateMutability": "view",
      "type": "function",
      "constant": true
    },
    {
      "inputs": [
        {
          "internalType": "address",
          "name": "patientAddress",
          "type": "address"
        }
      ],
      "name": "registerPatient",
      "outputs": [],
      "stateMutability": "nonpayable",
      "type": "function"
    },
    {
      "inputs": [
        {
          "internalType": "address",
          "name": "doctorAddress",
          "type": "address"
        }
      ],
      "name": "registerDoctor",
      "outputs": [],
      "stateMutability": "nonpayable",
      "type": "function"
    },
    {
      "inputs": [
        {
          "internalType": "string",
          "name": "diagnosis",
          "type": "string"
        },
        {
          "internalType": "string",
          "name": "treatment",
          "type": "string"
        }
      ],
      "name": "addRecord",
      "outputs": [],
      "stateMutability": "nonpayable",
      "type": "function"
    },
    {
      "inputs": [
        {
          "internalType": "address",
          "name": "doctor",
          "type": "address"
        }
      ],
      "name": "grantAccess",
      "outputs": [],
      "stateMutability": "nonpayable",
      "type": "function"
    },
    {
      "inputs": [
        {
          "internalType": "address",
          "name": "doctor",
          "type": "address"
        }
      ],
      "name": "revokeAccess",
      "outputs": [],
      "stateMutability": "nonpayable",
      "type": "function"
    },
    {
      "inputs": [
        {
          "internalType": "address",
          "name": "patient",
          "type": "address"
        }
      ],
      "name": "requestAccess",
      "outputs": [],
      "stateMutability": "nonpayable",
      "type": "function"
    },
    {
      "inputs": [
        {
          "internalType": "uint256",
          "name": "recordId",
          "type": "uint256"
        }
      ],
      "name": "viewRecord",
      "outputs": [
        {
          "internalType": "uint256",
          "name": "",
          "type": "uint256"
        },
        {
          "internalType": "string",
          "name": "",
          "type": "string"
        },
        {
          "internalType": "string",
          "name": "",
          "type": "string"
        },
        {
          "internalType": "address",
          "name": "",
          "type": "address"
        },
        {
          "internalType": "uint256",
          "name": "",
          "type": "uint256"
        }
      ],
      "stateMutability": "view",
      "type": "function",
      "constant": true
    },
    {
      "inputs": [
        {
          "internalType": "address",
          "name": "patient",
          "type": "address"
        },
        {
          "internalType": "address",
          "name": "doctor",
          "type": "address"
        }
      ],
      "name": "checkAccess",
      "outputs": [
        {
          "internalType": "bool",
          "name": "",
          "type": "bool"
        }
      ],
      "stateMutability": "view",
      "type": "function",
      "constant": true
    }
  ],
  "bytecode": "0x608060405234801561001057600080fd5b50600080546001600160a01b03191633179055611179806100326000396000f3fe608060405234801561001057600080fd5b50600436106100ea5760003560e01c806364b5a9251161008c57806385e685311161006657806385e685311461022d5780638da5cb5b14610240578063a9583c221461026b578063c95962481461028e57600080fd5b806364b5a925146101f0578063699ca998146102035780637599be5d1461021657600080fd5b80631388c519116100c85780631388c5191461014f578063344610671461016257806362e1f7451461018657806364b3b525146101c257600080fd5b8063022cb271146100ef5780630869cfbc146101045780630ae5e7391461013c575b600080fd5b6101026100fd366004610d94565b6102a1565b005b610127610112366004610d94565b60026020526000908152604090205460ff1681565b60405190151581526020015b60405180910390f35b61010261014a366004610d94565b61039f565b61010261015d366004610d94565b610487565b610175610170366004610db6565b6105ae565b604051610133959493929190610e15565b610127610194366004610e5e565b6001600160a01b03918216600090815260046020908152604080832093909416825291909152205460ff1690565b6101276101d0366004610e5e565b600460209081526000928352604080842090915290825290205460ff1681565b6101756101fe366004610db6565b6106f7565b610102610211366004610d94565b610955565b61021f60015481565b604051908152602001610133565b61010261023b366004610d94565b610a7c565b600054610253906001600160a01b031681565b6040516001600160a01b039091168152602001610133565b610127610279366004610d94565b60036020526000908152604090205460ff1681565b61010261029c366004610eda565b610b61565b3360009081526003602052604090205460ff166103055760405162461bcd60e51b815260206004820152601f60248201527f4f6e6c79207265676973746572656420646f63746f727320616c6c6f7765640060448201526064015b60405180910390fd5b6001600160a01b03811660009081526002602052604090205460ff166103665760405162461bcd60e51b815260206004820152601660248201527514185d1a595b9d081b9bdd081c9959da5cdd195c995960521b60448201526064016102fc565b6040516001600160a01b0382169033907f40c7749b16fdfb0d550f20273a7767875059d647af94f5a9610c63ad73dcc79f90600090a350565b3360009081526002602052604090205460ff166103ce5760405162461bcd60e51b81526004016102fc90610f46565b6001600160a01b03811660009081526003602052604090205460ff1661042e5760405162461bcd60e51b8152602060048201526015602482015274111bd8dd1bdc881b9bdd081c9959da5cdd195c9959605a1b60448201526064016102fc565b3360008181526004602090815260408083206001600160a01b0386168085529252808320805460ff19166001179055519092917f9f520b3bfc56d06f7065d10b4683b3f57ac8895d5026cd176dee95ce1454cb8d91a350565b6000546001600160a01b031633146104b15760405162461bcd60e51b81526004016102fc90610f7b565b6001600160a01b0381166104f95760405162461bcd60e51b815260206004820152600f60248201526e496e76616c6964206164647265737360881b60448201526064016102fc565b6001600160a01b03811660009081526002602052604090205460ff16156105625760405162461bcd60e51b815260206004820152601a60248201527f50617469656e7420616c7265616479207265676973746572656400000000000060448201526064016102fc565b6001600160a01b038116600081815260026020526040808220805460ff19166001179055517fc9fa2003fca4ce0dfc8cb0deae32266b715536df6685365b05b5be96ede8e49c9190a250565b600560205260009081526040902080546001820180549192916105d090610fbd565b80601f01602080910402602001604051908101604052809291908181526020018280546105fc90610fbd565b80156106495780601f1061061e57610100808354040283529160200191610649565b820191906000526020600020905b81548152906001019060200180831161062c57829003601f168201915b50505050509080600201805461065e90610fbd565b80601f016020809104026020016040519081016040528092919081815260200182805461068a90610fbd565b80156106d75780601f106106ac576101008083540402835291602001916106d7565b820191906000526020600020905b8154815290600101906020018083116106ba57829003601f168201915b50505050600383015460049093015491926001600160a01b031691905085565b60006060806000806000600560008881526020019081526020016000206040518060a00160405290816000820154815260200160018201805461073990610fbd565b80601f016020809104026020016040519081016040528092919081815260200182805461076590610fbd565b80156107b25780601f10610787576101008083540402835291602001916107b2565b820191906000526020600020905b81548152906001019060200180831161079557829003601f168201915b505050505081526020016002820180546107cb90610fbd565b80601f01602080910402602001604051908101604052809291908181526020018280546107f790610fbd565b80156108445780601f1061081957610100808354040283529160200191610844565b820191906000526020600020905b81548152906001019060200180831161082757829003601f168201915b505050918352505060038201546001600160a01b0316602082015260049091015460409091015280519091506000036108b75760405162461bcd60e51b8152602060048201526015602482015274149958dbdc9908191bd95cc81b9bdd08195e1a5cdd605a1b60448201526064016102fc565b60608101516001600160a01b031660008181526004602090815260408083203380855292529091205491149060ff1681806108ef5750805b61092b5760405162461bcd60e51b815260206004820152600d60248201526c1058d8d95cdcc819195b9a5959609a1b60448201526064016102fc565b50508051602082015160408301516060840151608090940151929a91995097509195509350915050565b6000546001600160a01b0316331461097f5760405162461bcd60e51b81526004016102fc90610f7b565b6001600160a01b0381166109c75760405162461bcd60e51b815260206004820152600f60248201526e496e76616c6964206164647265737360881b60448201526064016102fc565b6001600160a01b03811660009081526003602052604090205460ff1615610a305760405162461bcd60e51b815260206004820152601960248201527f446f63746f7220616c726561647920726567697374657265640000000000000060448201526064016102fc565b6001600160a01b038116600081815260036020526040808220805460ff19166001179055517f2dc8105a7545248d0e354c4c6b02fb583071cc719fb4bef1ca74d72d475570bc9190a250565b3360009081526002602052604090205460ff16610aab5760405162461bcd60e51b81526004016102fc90610f46565b6001600160a01b03811660009081526003602052604090205460ff16610b0b5760405162461bcd60e51b8152602060048201526015602482015274111bd8dd1bdc881b9bdd081c9959da5cdd195c9959605a1b60448201526064016102fc565b3360008181526004602090815260408083206001600160a01b0386168085529252808320805460ff19169055519092917f825c8be24eb0df19500f63e86c29e7d0d951e73056b889b891d85e40938d9b6e91a350565b3360009081526002602052604090205460ff16610b905760405162461bcd60e51b81526004016102fc90610f46565b82610bdd5760405162461bcd60e51b815260206004820152601960248201527f446961676e6f7369732063616e6e6f7420626520656d7074790000000000000060448201526064016102fc565b80610c2a5760405162461bcd60e51b815260206004820152601960248201527f54726561746d656e742063616e6e6f7420626520656d7074790000000000000060448201526064016102fc565b60018054906000610c3a83610ff7565b91905055506040518060a00160405280600154815260200185858080601f016020809104026020016040519081016040528093929190818152602001838380828437600092019190915250505090825250604080516020601f860181900481028201810190925284815291810191908590859081908401838280828437600092018290525093855250503360208085019190915242604094850152600180548452600582529390922084518155918401519192830191610cfb915082611083565b5060408201516002820190610d109082611083565b5060608201516003820180546001600160a01b0319166001600160a01b039092169190911790556080909101516004909101556001546040513391907f6afeb99dfbac77dacfc4c38cb125e51d6fbaad0d0aa90aa69df50f23b3cdf29590600090a350505050565b80356001600160a01b0381168114610d8f57600080fd5b919050565b600060208284031215610da657600080fd5b610daf82610d78565b9392505050565b600060208284031215610dc857600080fd5b5035919050565b6000815180845260005b81811015610df557602081850181015186830182015201610dd9565b506000602082860101526020601f19601f83011685010191505092915050565b85815260a060208201526000610e2e60a0830187610dcf565b8281036040840152610e408187610dcf565b6001600160a01b039590951660608401525050608001529392505050565b60008060408385031215610e7157600080fd5b610e7a83610d78565b9150610e8860208401610d78565b90509250929050565b60008083601f840112610ea357600080fd5b50813567ffffffffffffffff811115610ebb57600080fd5b602083019150836020828501011115610ed357600080fd5b9250929050565b60008060008060408587031215610ef057600080fd5b843567ffffffffffffffff80821115610f0857600080fd5b610f1488838901610e91565b90965094506020870135915080821115610f2d57600080fd5b50610f3a87828801610e91565b95989497509550505050565b6020808252818101527f4f6e6c7920726567697374657265642070617469656e747320616c6c6f776564604082015260600190565b60208082526022908201527f4f6e6c79206f776e65722063616e20706572666f726d2074686973206163746960408201526137b760f11b606082015260800190565b600181811c90821680610fd157607f821691505b602082108103610ff157634e487b7160e01b600052602260045260246000fd5b50919050565b60006001820161101757634e487b7160e01b600052601160045260246000fd5b5060010190565b634e487b7160e01b600052604160045260246000fd5b601f82111561107e57600081815260208120601f850160051c8101602086101561105b5750805b601f850160051c820191505b8181101561107a57828155600101611067565b5050505b505050565b815167ffffffffffffffff81111561109d5761109d61101e565b6110b1816110ab8454610fbd565b84611034565b602080601f8311600181146110e657600084156110ce5750858301515b600019600386901b1c1916600185901b17855561107a565b600085815260208120601f198616915b82811015611115578886015182559484019460019091019084016110f6565b50858210156111335787850151600019600388901b60f8161c191681555b5050505050600190811b0190555056fea2646970667358221220c8efe4d3dff895acf4b76aebe7ac3a6bde44984b3c438702a9eec5def986d9e064736f6c63430008140033",
  "immutableReferences": {},
  "source": "// SPDX-License-Identifier: MIT\npragma solidity ^0.8.20;\n\n/**\n * @title MedicalRecord\n * @notice A patient-controlled platform for sharing medical records on Ethereum.\n * @dev An administrator (the contract owner) registers patients and doctors.\n *      Each patient owns their records and decides which registered doctors\n *      are allowed to read them. Doctors can only view a record after the\n *      patient has explicitly granted access.\n *\n * SECURITY: Integer overflow / underflow protection is built in.\n *           This contract targets Solidity ^0.8.x, where all arithmetic\n *           (e.g. recordCounter++) reverts automatically on overflow,\n *           so no SafeMath library is required.\n */\ncontract MedicalRecord {\n\n    // =====================================================\n    // STATE VARIABLES\n    // =====================================================\n\n    /// @notice The administrator who deployed the contract.\n    address public owner;\n\n    /// @notice Running total of records created; also used as the next record ID.\n    uint256 public recordCounter;\n\n    /// @notice Registered patient addresses.\n    mapping(address => bool) public patients;\n\n    /// @notice Registered doctor addresses.\n    mapping(address => bool) public doctors;\n\n    /// @notice Access permissions: patient => doctor => allowed?\n    mapping(address => mapping(address => bool)) public accessPermissions;\n\n    // =====================================================\n    // STRUCTS\n    // =====================================================\n\n    /// @notice A single medical record owned by one patient.\n    struct Record {\n        uint256 recordId;\n        string diagnosis;\n        string treatment;\n        address patient;\n        uint256 timestamp;\n    }\n\n    /// @notice Stored records, keyed by record ID.\n    mapping(uint256 => Record) public records;\n\n    // =====================================================\n    // EVENTS\n    // =====================================================\n\n    event PatientRegistered(address indexed patient);\n    event DoctorRegistered(address indexed doctor);\n    event RecordAdded(uint256 indexed recordId, address indexed patient);\n    event AccessGranted(address indexed patient, address indexed doctor);\n    event AccessRevoked(address indexed patient, address indexed doctor);\n    event AccessRequested(address indexed doctor, address indexed patient);\n\n    // =====================================================\n    // CONSTRUCTOR\n    // =====================================================\n\n    /// @notice Sets the deploying account as the owner/administrator.\n    constructor() {\n        owner = msg.sender;\n    }\n\n    // =====================================================\n    // MODIFIERS\n    // =====================================================\n\n    // SECURITY: Role-based access control (RBAC).\n    //           Restricts administrative actions to the contract owner only.\n    modifier onlyOwner() {\n        require(msg.sender == owner, \"Only owner can perform this action\");\n        _;\n    }\n\n    // SECURITY: Role-based access control (RBAC).\n    //           Only addresses registered as patients may manage their own data.\n    modifier onlyPatient() {\n        require(patients[msg.sender], \"Only registered patients allowed\");\n        _;\n    }\n\n    // SECURITY: Role-based access control (RBAC).\n    //           Only addresses registered as doctors may request access.\n    modifier onlyDoctor() {\n        require(doctors[msg.sender], \"Only registered doctors allowed\");\n        _;\n    }\n\n    // =====================================================\n    // ADMIN FUNCTIONS\n    // =====================================================\n\n    /**\n     * @notice Register a new patient. Owner only.\n     * @dev Reverts on the zero address or an already-registered patient.\n     *      SECURITY: input validation via require() with descriptive messages.\n     * @param patientAddress The wallet address to register as a patient.\n     */\n    function registerPatient(address patientAddress) public onlyOwner {\n        require(patientAddress != address(0), \"Invalid address\");\n        require(!patients[patientAddress], \"Patient already registered\");\n        patients[patientAddress] = true;\n        emit PatientRegistered(patientAddress);\n    }\n\n    /**\n     * @notice Register a new doctor. Owner only.\n     * @dev Reverts on the zero address or an already-registered doctor.\n     * @param doctorAddress The wallet address to register as a doctor.\n     */\n    function registerDoctor(address doctorAddress) public onlyOwner {\n        require(doctorAddress != address(0), \"Invalid address\");\n        require(!doctors[doctorAddress], \"Doctor already registered\");\n        doctors[doctorAddress] = true;\n        emit DoctorRegistered(doctorAddress);\n    }\n\n    // =====================================================\n    // PATIENT FUNCTIONS\n    // =====================================================\n\n    /**\n     * @notice Add a medical record for the calling patient.\n     * @dev Only callable by a registered patient. Diagnosis and treatment\n     *      must be non-empty. recordCounter increments first, then the record\n     *      is stored (state change) and an event is emitted.\n     * @param diagnosis The diagnosis text.\n     * @param treatment The treatment text.\n     */\n    function addRecord(string calldata diagnosis, string calldata treatment)\n        external\n        onlyPatient\n    {\n        require(bytes(diagnosis).length > 0, \"Diagnosis cannot be empty\");\n        require(bytes(treatment).length > 0, \"Treatment cannot be empty\");\n\n        recordCounter++;\n\n        records[recordCounter] = Record({\n            recordId: recordCounter,\n            diagnosis: diagnosis,\n            treatment: treatment,\n            patient: msg.sender,\n            timestamp: block.timestamp\n        });\n\n        emit RecordAdded(recordCounter, msg.sender);\n    }\n\n    /**\n     * @notice Grant a registered doctor permission to view the caller's records.\n     * @dev Only callable by a registered patient; the doctor must be registered.\n     * @param doctor The doctor address to grant access to.\n     */\n    function grantAccess(address doctor) external onlyPatient {\n        require(doctors[doctor], \"Doctor not registered\");\n        accessPermissions[msg.sender][doctor] = true;\n        emit AccessGranted(msg.sender, doctor);\n    }\n\n    /**\n     * @notice Revoke a doctor's permission to view the caller's records.\n     * @dev Only callable by a registered patient; the doctor must be registered.\n     * @param doctor The doctor address to revoke access from.\n     */\n    function revokeAccess(address doctor) external onlyPatient {\n        require(doctors[doctor], \"Doctor not registered\");\n        accessPermissions[msg.sender][doctor] = false;\n        emit AccessRevoked(msg.sender, doctor);\n    }\n\n    // =====================================================\n    // DOCTOR FUNCTIONS\n    // =====================================================\n\n    /**\n     * @notice A registered doctor requests access to a patient's records.\n     * @dev Emits an event so the patient can later grant access. Does not\n     *      change permissions by itself.\n     * @param patient The patient the doctor is requesting access from.\n     */\n    function requestAccess(address patient) external onlyDoctor {\n        require(patients[patient], \"Patient not registered\");\n        emit AccessRequested(msg.sender, patient);\n    }\n\n    // =====================================================\n    // VIEW FUNCTIONS\n    // =====================================================\n\n    /**\n     * @notice View a medical record by ID.\n     * @dev SECURITY: access control on read — the caller must be either the\n     *      patient who owns the record or a doctor the patient has authorised.\n     *      Reverts if the record does not exist.\n     * @param recordId The ID of the record to view.\n     * @return The record ID, diagnosis, treatment, patient address, and timestamp.\n     */\n    function viewRecord(uint256 recordId)\n        external\n        view\n        returns (uint256, string memory, string memory, address, uint256)\n    {\n        Record memory record = records[recordId];\n        require(record.recordId != 0, \"Record does not exist\");\n\n        bool isOwner = msg.sender == record.patient;\n        bool isAuthorizedDoctor = accessPermissions[record.patient][msg.sender];\n        require(isOwner || isAuthorizedDoctor, \"Access denied\");\n\n        return (\n            record.recordId,\n            record.diagnosis,\n            record.treatment,\n            record.patient,\n            record.timestamp\n        );\n    }\n\n    /**\n     * @notice Check whether a doctor currently has access to a patient's records.\n     * @param patient The patient address.\n     * @param doctor The doctor address.\n     * @return True if the doctor is permitted, false otherwise.\n     */\n    function checkAccess(address patient, address doctor)\n        external\n        view\n        returns (bool)\n    {\n        return accessPermissions[patient][doctor];\n    }\n}\n",
  "sourcePath": "C:\\Users\\user\\Desktop\\BlockChain\\Assignment\\medrec\\medrec\\contracts\\MedicalRecord.sol",
  "compiler": {
    "name": "solc",
    "version": "0.8.20+commit.a1b79de6.Emscripten.clang"
  },
  "schemaVersion": "3.4.16",
  "updatedAt": "2026-06-19T05:11:42.998Z",
  "networkType": "ethereum",
  "devdoc": {
    "details": "An administrator (the contract owner) registers patients and doctors.      Each patient owns their records and decides which registered doctors      are allowed to read them. Doctors can only view a record after the      patient has explicitly granted access. SECURITY: Integer overflow / underflow protection is built in.           This contract targets Solidity ^0.8.x, where all arithmetic           (e.g. recordCounter++) reverts automatically on overflow,           so no SafeMath library is required.",
    "kind": "dev",
    "methods": {
      "addRecord(string,string)": {
        "details": "Only callable by a registered patient. Diagnosis and treatment      must be non-empty. recordCounter increments first, then the record      is stored (state change) and an event is emitted.",
        "params": {
          "diagnosis": "The diagnosis text.",
          "treatment": "The treatment text."
        }
      },
      "checkAccess(address,address)": {
        "params": {
          "doctor": "The doctor address.",
          "patient": "The patient address."
        },
        "returns": {
          "_0": "True if the doctor is permitted, false otherwise."
        }
      },
      "grantAccess(address)": {
        "details": "Only callable by a registered patient; the doctor must be registered.",
        "params": {
          "doctor": "The doctor address to grant access to."
        }
      },
      "registerDoctor(address)": {
        "details": "Reverts on the zero address or an already-registered doctor.",
        "params": {
          "doctorAddress": "The wallet address to register as a doctor."
        }
      },
      "registerPatient(address)": {
        "details": "Reverts on the zero address or an already-registered patient.      SECURITY: input validation via require() with descriptive messages.",
        "params": {
          "patientAddress": "The wallet address to register as a patient."
        }
      },
      "requestAccess(address)": {
        "details": "Emits an event so the patient can later grant access. Does not      change permissions by itself.",
        "params": {
          "patient": "The patient the doctor is requesting access from."
        }
      },
      "revokeAccess(address)": {
        "details": "Only callable by a registered patient; the doctor must be registered.",
        "params": {
          "doctor": "The doctor address to revoke access from."
        }
      },
      "viewRecord(uint256)": {
        "details": "SECURITY: access control on read — the caller must be either the      patient who owns the record or a doctor the patient has authorised.      Reverts if the record does not exist.",
        "params": {
          "recordId": "The ID of the record to view."
        },
        "returns": {
          "_0": "The record ID, diagnosis, treatment, patient address, and timestamp."
        }
      }
    },
    "title": "MedicalRecord",
    "version": 1
  },
  "userdoc": {
    "kind": "user",
    "methods": {
      "accessPermissions(address,address)": {
        "notice": "Access permissions: patient => doctor => allowed?"
      },
      "addRecord(string,string)": {
        "notice": "Add a medical record for the calling patient."
      },
      "checkAccess(address,address)": {
        "notice": "Check whether a doctor currently has access to a patient's records."
      },
      "constructor": {
        "notice": "Sets the deploying account as the owner/administrator."
      },
      "doctors(address)": {
        "notice": "Registered doctor addresses."
      },
      "grantAccess(address)": {
        "notice": "Grant a registered doctor permission to view the caller's records."
      },
      "owner()": {
        "notice": "The administrator who deployed the contract."
      },
      "patients(address)": {
        "notice": "Registered patient addresses."
      },
      "recordCounter()": {
        "notice": "Running total of records created; also used as the next record ID."
      },
      "records(uint256)": {
        "notice": "Stored records, keyed by record ID."
      },
      "registerDoctor(address)": {
        "notice": "Register a new doctor. Owner only."
      },
      "registerPatient(address)": {
        "notice": "Register a new patient. Owner only."
      },
      "requestAccess(address)": {
        "notice": "A registered doctor requests access to a patient's records."
      },
      "revokeAccess(address)": {
        "notice": "Revoke a doctor's permission to view the caller's records."
      },
      "viewRecord(uint256)": {
        "notice": "View a medical record by ID."
      }
    },
    "notice": "A patient-controlled platform for sharing medical records on Ethereum.",
    "version": 1
  }
}